:100000000C942A000C9459010C9480010C94A701C3
:100010000C94CE010C94F5010C941C020C94430238
:100020000C946A020C9491020C94B8020C94DF02B6
:100030000C9406030C942D030C9454030C947B0332
:100040000C94A2030C94C9030C94F0030C941704B1
:100050000C943E0411241FBECFE5D8E0DEBFCDBF17
:1000600010E0A0E6B0E0EAE3F5E102C005900D92F1
:10007000A037B107D9F710E0A0E7B0E001C01D92AA
:10008000A839B107E1F70E94E5040C949B0A0C948F
:100090000000813049F0813028F0823039F083301F
:1000A00041F406C06ABB089567BB089564BB089518
:1000B00061BB0895813049F0813028F0823039F0F9
:1000C000833041F406C06BBB089568BB089565BBDF
:1000D000089562BB0895813059F0813028F0823054
:1000E00059F0833081F40CC08BB380958BBB08959D
:1000F00088B3809588BB089585B3809585BB0895A6
:1001000082B3809582BB0895813049F0813028F018
:10011000823039F0833049F406C08BB3089588B338
:10012000089585B3089582B3089580E00895442327
:1001300019F04F3FD1F521C0813069F0813028F0AE
:10014000823079F08330C9F412C08AB3962F90952B
:1001500089238ABB1BC087B3962F9095892387BBC1
:1001600019C084B3962F9095892384BB17C081B39F
:10017000962F9095892381BB15C0813059F081302D
:1001800028F0823059F0833081F40CC08AB3682B98
:100190006ABB089587B3682B67BB089584B3682B47
:1001A00064BB089581B3682B61BB0895442319F0A3
:1001B0004F3FB1F51DC0813061F0813028F08230B1
:1001C00069F0833069F50FC08BB3609568236BBB12
:1001D000089588B36095682368BB089585B36095DA
:1001E000682365BB089582B36095682362BB089558
:1001F000813059F0813028F0823059F0833081F419
:100200000CC08BB3682B6BBB089588B3682B68BB9D
:10021000089585B3682B65BB089582B3682B62BBD4
:100220000895813059F0813028F0823059F08330C0
:1002300081F40CC08BB368276BBB089588B3682723
:1002400068BB089585B3682765BB089582B36827A6
:1002500062BB0895813051F0813028F0823049F03E
:10026000833069F409C089B368230AC086B3682360
:1002700007C083B3682304C080B3682301C060E073
:1002800081E0662309F480E008958FB780688FBF0E
:10029000089581E064E040E00E9497008BB780629F
:1002A0008BBF84B7806484BF08958FB78F778FBF6B
:1002B00008951F920F920FB60F9211242F933F9320
:1002C0004F935F936F937F938F939F93AF93BF935E
:1002D000EF93FF93E0918C00F0918D000995FF91D1
:1002E000EF91BF91AF919F918F917F916F915F91AE
:1002F0004F913F912F910F900FBE0F901F90189527
:100300001F920F920FB60F9211242F933F934F938A
:100310005F936F937F938F939F93AF93BF93EF936D
:10032000FF93E0919200F09193000995FF91EF9176
:10033000BF91AF919F918F917F916F915F914F91FD
:100340003F912F910F900FBE0F901F9018951F9205
:100350000F920FB60F9211242F933F934F935F93F9
:100360006F937F938F939F93AF93BF93EF93FF937D
:10037000E0918200F09183000995FF91EF91BF9188
:10038000AF919F918F917F916F915F914F913F912D
:100390002F910F900FBE0F901F9018951F920F92E4
:1003A0000FB60F9211242F933F934F935F936F9348
:1003B0007F938F939F93AF93BF93EF93FF93E091BE
:1003C0006600F09167000995FF91EF91BF91AF91A1
:1003D0009F918F917F916F915F914F913F912F915D
:1003E0000F900FBE0F901F9018951F920F920FB68F
:1003F0000F9211242F933F934F935F936F937F93AB
:100400008F939F93AF93BF93EF93FF93E09164001B
:10041000F09165000995FF91EF91BF91AF919F9188
:100420008F917F916F915F914F913F912F910F909D
:100430000FBE0F901F9018951F920F920FB60F923C
:1004400011242F933F934F935F936F937F938F93D9
:100450009F93AF93BF93EF93FF93E0919400F0913C
:1004600095000995FF91EF91BF91AF919F918F9169
:100470007F916F915F914F913F912F910F900FBEA0
:100480000F901F9018951F920F920FB60F92112484
:100490002F933F934F935F936F937F938F939F938C
:1004A000AF93BF93EF93FF93E0917E00F0917F00B5
:1004B0000995FF91EF91BF91AF919F918F917F919E
:1004C0006F915F914F913F912F910F900FBE0F90C1
:1004D0001F9018951F920F920FB60F9211242F9311
:1004E0003F934F935F936F937F938F939F93AF93BC
:1004F000BF93EF93FF93E0917C00F0917D0009950D
:10050000FF91EF91BF91AF919F918F917F916F91EB
:100510005F914F913F912F910F900FBE0F901F90C1
:1005200018951F920F920FB60F9211242F933F939D
:100530004F935F936F937F938F939F93AF93BF93EB
:10054000EF93FF93E0919600F09197000995FF914A
:10055000EF91BF91AF919F918F917F916F915F913B
:100560004F913F912F910F900FBE0F901F901895B4
:100570001F920F920FB60F9211242F933F934F9318
:100580005F936F937F938F939F93AF93BF93EF93FB
:10059000FF93E0916200F09163000995FF91EF9164
:1005A000BF91AF919F918F917F916F915F914F918B
:1005B0003F912F910F900FBE0F901F9018951F9293
:1005C0000F920FB60F9211242F933F934F935F9387
:1005D0006F937F938F939F93AF93BF93EF93FF930B
:1005E000E0918400F09185000995FF91EF91BF9112
:1005F000AF919F918F917F916F915F914F913F91BB
:100600002F910F900FBE0F901F9018951F920F9271
:100610000FB60F9211242F933F934F935F936F93D5
:100620007F938F939F93AF93BF93EF93FF93E0914B
:100630008000F09181000995FF91EF91BF91AF91FA
:100640009F918F917F916F915F914F913F912F91EA
:100650000F900FBE0F901F9018951F920F920FB61C
:100660000F9211242F933F934F935F936F937F9338
:100670008F939F93AF93BF93EF93FF93E0916000AD
:10068000F09161000995FF91EF91BF91AF919F911A
:100690008F917F916F915F914F913F912F910F902B
:1006A0000FBE0F901F9018951F920F920FB60F92CA
:1006B00011242F933F934F935F936F937F938F9367
:1006C0009F93AF93BF93EF93FF93E0919000F091CE
:1006D00091000995FF91EF91BF91AF919F918F91FB
:1006E0007F916F915F914F913F912F910F900FBE2E
:1006F0000F901F9018951F920F920FB60F92112412
:100700002F933F934F935F936F937F938F939F9319
:10071000AF93BF93EF93FF93E0918E00F0918F0022
:100720000995FF91EF91BF91AF919F918F917F912B
:100730006F915F914F913F912F910F900FBE0F904E
:100740001F9018951F920F920FB60F9211242F939E
:100750003F934F935F936F937F938F939F93AF9349
:10076000BF93EF93FF93E0918800F0918900099582
:10077000FF91EF91BF91AF919F918F917F916F9179
:100780005F914F913F912F910F900FBE0F901F904F
:1007900018951F920F920FB60F9211242F933F932B
:1007A0004F935F936F937F938F939F93AF93BF9379
:1007B000EF93FF93E0918A00F0918B000995FF91F0
:1007C000EF91BF91AF919F918F917F916F915F91C9
:1007D0004F913F912F910F900FBE0F901F90189542
:1007E0001F920F920FB60F9211242F933F934F93A6
:1007F0005F936F937F938F939F93AF93BF93EF9389
:10080000FF93E0918600F09187000995FF91EF91A9
:10081000BF91AF919F918F917F916F915F914F9118
:100820003F912F910F900FBE0F901F9018951F9220
:100830000F920FB60F9211242F933F934F935F9314
:100840006F937F938F939F93AF93BF93EF93FF9398
:10085000E0917800F09179000995FF91EF91BF91B7
:10086000AF919F918F917F916F915F914F913F9148
:100870002F910F900FBE0F901F9018951F920F92FF
:100880000FB60F9211242F933F934F935F936F9363
:100890007F938F939F93AF93BF93EF93FF93E091D9
:1008A0007A00F0917B000995FF91EF91BF91AF9194
:1008B0009F918F917F916F915F914F913F912F9178
:1008C0000F900FBE0F901F901895813069F0813006
:1008D00028F0823079F08330C1F412C081E060E109
:1008E0004FEF0E949700089581E060E24FEF0E9471
:1008F0009700089581E060E44FEF0E94970008950B
:1009000081E060E84FEF0E9497000895813069F020
:10091000813028F0823079F08330C1F412C081E058
:1009200060E14FEF0E94D600089581E060E24FEF52
:100930000E94D600089581E060E44FEF0E94D60047
:10094000089581E060E84FEF0E94D600089581305D
:1009500069F0813028F0823079F08330C1F412C020
:1009600081E060E140E00E94D600089581E060E20D
:1009700040E00E94D600089581E060E440E00E94DB
:10098000D600089581E060E840E00E94D600089516
:10099000813061F0813028F0823069F08330A1F439
:1009A0000FC081E060E10E941101089581E060E2E2
:1009B0000E941101089581E060E40E9411010895F0
:1009C00081E060E80E941101089580E00E94230503
:1009D00081E00E9423050E94C40580E00E94650416
:1009E00081E00E94650480E060E041E020E000E0FA
:1009F000EE24CC240E94500787E660E040E023E02C
:100A00000E94AB0880E00E94860481E00E94860478
:100A10000E940909C82F80E00E9444058111CF5F20
:100A200081E00E9444058111C1508C2F0E9405096C
:100A30008C2F90E00E94E8050E94430784E690E036
:100A40000E94A007E8CF813069F0813028F0823021
:100A500079F08330C1F412C082E060E140E00E948E
:100A60009700089581E064E040E00E9497000895B7
:100A700080E064E040E00E949700089580E068E034
:100A800040E00E94970008958130F9F0813030F005
:100A9000823081F1833009F057C041C082E060E1CB
:100AA0000E942A01813009F050C06AE070E080E0C5
:100AB00090E00E94AE0582E060E10E942A0191E090
:100AC000813009F449C090E047C081E064E00E94B1
:100AD0002A018130E1F56AE070E080E090E00E9458
:100AE000AE0581E064E00E942A0191E08130A1F12D
:100AF00090E032C080E064E00E942A01813049F534
:100B00006AE070E080E090E00E94AE0580E064E082
:100B10000E942A0191E08130F9F090E01DC080E050
:100B200068E00E942A018130B1F46AE070E080E060
:100B300090E00E94AE0580E068E00E942A0191E00A
:100B4000813051F090E008C0089590E005C090E039
:100B500003C090E001C090E0892F0895AB01BC0173
:100B6000411551056105710559F4089501968639BD
:100B70009105E1F7415050406040704019F40895EC
:100B800020E030E0C901F2CFCF93DF93C8E6D0E098
:100B900090916E008881892B9C81892B9981892B6A
:100BA0009D81892B8DB99EB18B81892B8EB981E076
:100BB00060EB4FEF0E94970081E060E440E00E940C
:100BC00097009DB18A81892B8DB9DF91CF910895CE
:100BD0008FB9779BFECF0895779BFECF8FB1089595
:100BE0008EB182958695869583708170089582BFB7
:100BF000089582B7089583B7887F83BF93B78091A4
:100C00007600892B83BF089583B7887F83BF0895BB
:100C1000EF920F93442319F40E94040648C093B73F
:100C2000892B842B83BF4093760022BF603171F003
:100C3000613118F4662331F014C0603259F060332A
:100C400081F40CC083B78F7C83BF0BC083B78061F6
:100C500083BF07C083B7806283BF03C083B780634D
:100C600083BF0CBF81E0E81669F0E81620F082E04F
:100C7000E816E9F410C0109275000E94550189B77A
:100C800019BE15C081E0809375000E94450189B7A7
:100C9000816089BF0CC081E0809375008FB7806848
:100CA0008FBF89B7816089BF89B7826089BF0F9183
:100CB000EF900895AC0160E070E0411551056105C9
:100CC000710589F080E090E0DC0108B600FEFDCF00
:100CD00028B7216028BF0196A11DB11D8417950773
:100CE000A607B70790F30895DC01CB010097A10593
:100CF000B10531F080EF0E94F7050E94F905FDCFA4
:100D000088B7816088BF0895CF92DF92EF92FF92FB
:100D1000CF93C82F8FEF809371006091710070E0C6
:100D200080E090E00E94AA096B017C016C2F70E0CA
:100D300080E090E00E94AA0920E030E048EC52E414
:100D40000E9416099B01AC01C701B6010E94380A36
:100D50000E947E096093710080917500882319F0CC
:100D6000813029F51FC00E94FB05809171000E940F
:100D7000F70508B600FEFDCF88B7816088BF85B350
:100D80008FEF85BB0E94FB058091710080950E94CA
:100D9000F70508B600FEFDCF88B7816088BF85B330
:100DA00015BA05C00E94FB05809171008CBFCF91E0
:100DB000FF90EF90DF90CF90089582B3809582BB33
:100DC0000895AF92EF92FF920F931F93D9012A2DAE
:100DD000EEB5FFB590E0862B972B8E2B9F2B9FBDFA
:100DE0008EBD409372001BBD0ABDF9BCE8BCBDBD01
:100DF000ACBD2830D1F0293028F4AA2051F024309D
:100E0000F9F40BC02032A9F02C33B9F02031C1F431
:100E100008C089B7837C89BF13C089B7846089BF44
:100E20000FC089B7806189BF0BC089B7886089BF4F
:100E300007C089B7806289BF03C089B78C6389BF47
:100E40001F910F91FF90EF90AF9008959DBD8CBDC5
:100E500008958CB59DB508952EB53FB5809172006B
:100E600090E0822B932B9FBD8EBD08958EB59FB5CC
:100E7000887F9FBD8EBD089508950895089584BD0F
:100E8000089584B5089585B5887F85BD95B5809111
:100E90007300892B85BD089585B5887F85BD08952C
:100EA000CF920F93442319F40E944C0746C095B586
:100EB000892B842B85BD4093730024BD603171F074
:100EC000613118F4662331F014C0603259F0603398
:100ED00081F40CC085B58F7C85BD0BC085B5806164
:100EE00085BD07C085B5806285BD03C085B58063BB
:100EF00085BD03BD80E4C81661F080E8C81691F096
:100F0000CC20D9F4109274000E94550189B719BE03
:100F100014C081E0809374000E94450189B7806409
:100F200089BF0BC081E0809374000E94450189B79E
:100F3000806489BF89B7806889BF0F91CF90089579
:100F40000F931F93CF93DF9300D000D0CDB7DEB7C0
:100F50008C011A8219821B821C828091730084305A
:100F6000F9F0853038F4823089F08330A0F4813094
:100F700051F507C08630F1F08630B8F0873019F5AA
:100F80001EC08AE38B838AE08C831DC088E08B833C
:100F90008CE08C8318C082E08B8388E08C8313C044
:100FA00081E08B8386E08C830EC081E08B8383E8B5
:100FB0008C8309C081E08B8382EC8C8304C081E048
:100FC0008B8380EF8C831A8219822B8149815A810D
:100FD00030E0029FC001039F900D129F900D1124DD
:100FE00048175907E0F48C810E943F0708B606FEB7
:100FF000FDCF88B7806488BF89819A8101969A83E2
:1010000089832B8149815A8130E0029FC001039F6F
:10101000900D129F900D11244817590720F30F903F
:101020000F900F900F90DF91CF911F910F91089526
:10103000CF92DF92EF92FF92CF93DF9300D0CDB7A4
:10104000DEB76B017C011A8219821A8219828981AA
:101050009A81A0E0B0E08C159D05AE05BF05B8F4FF
:101060008EEF0E943F0708B606FEFDCF88B780646A
:1010700088BF89819A8101969A83898389819A811F
:10108000A0E0B0E08C159D05AE05BF0548F30F90BC
:101090000F90DF91CF91FF90EF90DF90CF90089568
:1010A000CF92DF92EF92FF92CF93C82F8FEF809372
:1010B00071006091710070E080E090E00E94AA09E8
:1010C0006B017C016C2F70E080E090E00E94AA0927
:1010D00020E030E048EC52E40E9416099B01AC018C
:1010E000C701B6010E94380A0E947E096093710010
:1010F00080917400882319F0813029F51FC00E9467
:101100004307809171000E943F0708B602FEFDCFA1
:1011100088B7846088BF85B38FEF85BB0E94430783
:101120008091710080950E943F0708B602FEFDCFB6
:1011300088B7846088BF85B315BA05C00E9443078D
:101140008091710083BDCF91FF90EF90DF90CF90A1
:101150000895089508950F93833371F0843318F43C
:10116000893179F40CC0843421F0873651F489B97F
:1011700008C084E489B905C083E389B902C089E164
:1011800089B9662331F0613011F080E003C088E84E
:1011900001C080E82230A1F0233028F4222341F05E
:1011A0002130B9F409C0233079F0243091F40FC014
:1011B0008068897F52980DC082688B7F529809C0E1
:1011C00089778468529805C08668529802C08668FC
:1011D000529A002319F0013029F403C080688F7BF4
:1011E00001C0806C413041F0413018F0423041F490
:1011F00006C080688F7C04C08F74806A01C0806BD9
:1012000080BD539A549A0F9108955D9BFECF8CB97F
:1012100008955F9BFECF8CB108950E9445015F9AAF
:1012200008958CB180937700089508950CD0E6C09E
:10123000DED040F0D5D030F021F45F3F19F0C7C0C8
:10124000511110C1CAC0EBD098F39923C9F35523AB
:10125000B1F3951B550BBB27AA27621773078407A9
:1012600038F09F5F5F4F220F331F441FAA1FA9F35F
:1012700033D00E2E3AF0E0E830D091505040E69551
:10128000001CCAF729D0FE2F27D0660F771F881FB2
:10129000BB1F261737074807AB07B0E809F0BB0BA1
:1012A000802DBF01FF2793585F4F2AF09E3F5105C5
:1012B00068F08DC0D7C05F3FECF3983EDCF38695B5
:1012C00077956795B795F7959F5FC9F7880F911D3B
:1012D0009695879597F90895E1E0660F771F881F27
:1012E000BB1F621773078407BA0720F0621B730BDA
:1012F000840BBA0BEE1F88F7E095089598D088F01C
:101300009F5790F0B92F9927B751A0F0D1F0660FF1
:10131000771F881F991F1AF0BA95C9F712C0B1300C
:1013200081F09FD0B1E008959CC0672F782F882767
:10133000B85F39F0B93FCCF3869577956795B3954B
:10134000D9F73EF490958095709561957F4F8F4FBA
:101350009F4F0895E89409C097FB3EF490958095BF
:10136000709561957F4F8F4F9F4F9923A9F0F92F6B
:1013700096E9BB279395F695879577956795B795E9
:10138000F111F8CFFAF4BB0F11F460FF1BC06F5FCF
:101390007F4F8F4F9F4F16C0882311F096E911C0E1
:1013A000772321F09EE8872F762F05C0662371F002
:1013B00096E8862F70E060E02AF09A95660F771F16
:1013C000881FDAF7880F9695879597F9089597F90A
:1013D0009F6780E870E060E008959FEF80EC0895DB
:1013E00000240A9416161706180609060895002404
:1013F0000A9412161306140605060895092E03947E
:10140000000C11F4882352F0BB0F40F4BF2B11F4F1
:1014100060FF04C06F5F7F4F8F4F9F4F089557FD50
:101420009058440F551F59F05F3F71F04795880F52
:1014300097FB991F61F09F3F79F0879508951216E9
:1014400013061406551FF2CF4695F1DF08C0161695
:1014500017061806991FF1CF869571056105089446
:101460000895E894BB2766277727CB0197F908955D
:101470000BD0C4CFB5DF28F0BADF18F0952309F000
:10148000A6CFABCF1124EECFCADFA0F3959FD1F347
:10149000950F50E0551F629FF001729FBB27F00D22
:1014A000B11D639FAA27F00DB11DAA1F649F662777
:1014B000B00DA11D661F829F2227B00DA11D621FC6
:1014C000739FB00DA11D621F839FA00D611D221F80
:1014D000749F3327A00D611D231F849F600D211D64
:1014E000822F762F6A2F11249F5750408AF0E1F007
:1014F00088234AF0EE0FFF1FBB1F661F771F881F50
:1015000091505040A9F79E3F510570F060CFAACF8F
:101510005F3FECF3983EDCF3869577956795B7953A
:10152000F795E7959F5FC1F7FE2B880F911D969564
:0A153000879597F90895F894FFCF0E
:10153A001109DD06AA08A9081001400008002001C7
:00000001FF
